:020000040000FA
:020000000528D1
:040002000034003492
:08000800422821006A30990032
:1000100021003D308C00EF308D0023008C018C15C9
:100020008D0122008C018D0120008C018C148D012A
:100030002100063095002400FF308D0021000D3096
:100040009D0080309E0060308B002000C901CE01F1
:10005000CF013B2338204A0807397F220330B800FC
:100060005F21252345230D1C33288B173820362884
:1000700021009D149D183A281B082000CA07CA0EAB
:10008000CA0A08000B1D09000B112000C91A92288A
:100090008D19C911C80A8D195228481C9228C919EE
:1000A00052285428481E9228C8013D21003E031DB5
:1000B0005B285A219228C915E3202208031D7028C5
:1000C0000D082439031D6628033067284A080739BC
:1000D0007F22A208031D6E285A2169285F219228D9
:1000E000C91632308400CC0085014C088400FF30F2
:1000F0001B0021300402031982280408CC002523A8
:10010000362175284C08840003011A000408CC002D
:100110003430040203198F28252336218228B22285
:10012000252309000D1949108D1AC9108D18491180
:100130000D1849120D1CA5280D1DBE28D0018D1EBD
:10014000CC28D1018D1CDA28E128CF0ACF19BB2891
:1001500036210D1CA528CF01C91AB4280D18AE28C8
:100160000D1CB02836210900C9123B2325237F220C
:10017000CE013621090021008C14BD28CA0AD00AFC
:10018000D019C4284918E1287E21031DE1289F21A8
:100190004F225F214914E128CA0AD10AD119D22875
:1001A000C918E1288521031DE1289F211C225F2118
:1001B000C914E128CA0A4919E1289F21A6215F2113
:1001C0004915252309003230CB0084008501130036
:1001D000FF3C0319F120CB0322304B02031DE7281B
:1001E00008000408CC004B0886008701E7301E0099
:1001F0000608CD0025234D0886003621C3301D009A
:100200000608CD0025234D088600362181301E00CA
:100210000608CD0025234D088600362100301D003C
:100220000608CD0025234D08860036214B088600A0
:10023000840084038501870113001F002230060219
:10024000031D1C294C088400840ACB0ACE0A4E08E0
:100250000F390A3C031D2E290630CE074E08F0390F
:10026000A03C031D35296030CE0708006630C7006A
:10027000C60B3829C70B382908003F080319422943
:100280001030432911303802031901342030380767
:10029000033E8400850113003F05031D0134130054
:1002A0003F063E05031D013413003E063D05031DB8
:1002B000013400349F216221B80A702108006221B4
:1002C000702108002030380784008501003F430674
:1002D0001A00003F44061A00003F45061A000800B5
:1002E0002030380784008501003F3D041A00003F9C
:1002F0003E041A00003F3F041A0008003D35C000CC
:100300003E35C1003F35C2008B293D36C0003E3628
:10031000C1003F36C200203038078400850112003A
:100320003D064005031D013412003E064105031D34
:10033000013412003F064205031D013400343D081C
:10034000C3003E08C4003F08C500080006303A025A
:100350000318080039080319B229073039020319B4
:10036000B429B5297A22B5294A223908BC000130BE
:10037000BC020319BF29BD36BE36BF36B729C0013E
:10038000C101C201FC303A07031CCA2901303B02FB
:100390000319DD293D1942153E19C2143F194214B3
:1003A000BD184115BE18C114BF1841143D184015A1
:1003B0003E18C0143F184014F1293F194015BF18CA
:1003C00041153F1842153E19C014BE18C1143E18FD
:1003D000C2143D194014BD1841143D184214FF3099
:1003E000BB00BC0A39083C020319FD29BD35BE35E6
:1003F000BF35C035C135C235F129203038078400FA
:10040000850112003D064005031D080012003E064E
:100410004105031D080012003F064205031D0800A8
:100420004008BD004108BE004208BF00BB0A0430BE
:100430003B020319BB010800390803190800013009
:100440003902031D4A2A03303A0203182B2A0130CD
:100450003B0203194A2A03303A02031D372A0130AE
:100460003B0203194A2A03303B0203194A2A04308B
:100470003A02031D3F2A02303B0203194A2A053083
:100480003A02031D462A3B0803194A2A06303A025B
:10049000031D0800B903BD36BE36BF36080007305D
:1004A00039020319080006303902031D7A2A033085
:1004B0003A0203185F2A03303B0203197A2A0330F9
:1004C0003A02031D6B2A01303B0203197A2A0330DA
:1004D0003B0203197A2A04303A02031D722A3B08B0
:1004E00003197A2A05303A02031D080002303B0244
:1004F000031D0800B90ABD35BE35BF350800BA0076
:10050000C301C401C5010330B900B801BB01823089
:1005100085009A3084003A080319932ACC000330EE
:100520008407CC0B8F2A1200BD001200BE001200FF
:10053000BF00080010341C34003408341C3400346C
:1005400004341C34003400341C34003404340C34BF
:10055000083410341834083418341834003408348B
:100560001C3408342B30CB00BA22CE0E2330CB0003
:10057000BA220800CC014E080F39CD000319C42A55
:100580000830CC07CD0BC02A82308500D5304C070F
:100590000318850A84004B08860087010830CD00C7
:1005A00012001E00CD0BD02A08003C3466346E3495
:1005B0007E34763466343C3400341834383418349D
:1005C0001834183418347E3400343C34663406341D
:1005D0001C34303466347E3400343C3466340634A3
:1005E0001C34063466343C3400341C343C346C34E3
:1005F000CC34FE340C341E3400347E3460347C340D
:100600000634063466343C3400341C3430346034F0
:100610007C34663466343C3400347E3466340634CC
:100620000C3418341834183400343C3466346634CE
:100630003C34663466343C3400343C3466346634CE
:100640003E3406340C34383400340830B7008501A9
:100650003230840087012A30860037087D2313005A
:100660007D2337087D2317007D238C1700008C1312
:10067000B70B2D2B08001330B70085012030840004
:1006800003011A00B70B402B08000F307D23003008
:100690007D230F307D2300307D238C1700008C13C9
:1006A0000B307D2307307D230B307D2307307D23E6
:1006B0008C1700008C130A307D2301307D230A3013
:1006C0007D2301307D238C1700008C1309307D239E
:1006D00000307D2309307D2300307D238C170000FE
:1006E0008C130C307D2301307D230C307D230130B1
:1006F0007D238C1700008C130800B6000830B5006D
:10070000B60D031C0C1303180C1700000D16000087
:080710000D12B50B802B08004F
:020000040001F9
:02000E00E40FFD
:02001000FF3EB1
:00000001FF
